{
  "_format": "hh3-artifact-1",
  "contractName": "OraculoETHUSD",
  "sourceName": "contracts/OraculoETHUSD.sol",
  "abi": [
    {
      "inputs": [
        {
          "internalType": "address",
          "name": "_feed",
          "type": "address"
        }
      ],
      "stateMutability": "nonpayable",
      "type": "constructor"
    },
    {
      "anonymous": false,
      "inputs": [
        {
          "indexed": true,
          "internalType": "address",
          "name": "previousOwner",
          "type": "address"
        },
        {
          "indexed": true,
          "internalType": "address",
          "name": "newOwner",
          "type": "address"
        }
      ],
      "name": "OwnershipTransferred",
      "type": "event"
    },
    {
      "inputs": [],
      "name": "getLatestPrice",
      "outputs": [
        {
          "internalType": "int256",
          "name": "",
          "type": "int256"
        }
      ],
      "stateMutability": "view",
      "type": "function"
    },
    {
      "inputs": [],
      "name": "owner",
      "outputs": [
        {
          "internalType": "address",
          "name": "",
          "type": "address"
        }
      ],
      "stateMutability": "view",
      "type": "function"
    },
    {
      "inputs": [],
      "name": "renounceOwnership",
      "outputs": [],
      "stateMutability": "nonpayable",
      "type": "function"
    },
    {
      "inputs": [
        {
          "internalType": "address",
          "name": "newOwner",
          "type": "address"
        }
      ],
      "name": "transferOwnership",
      "outputs": [],
      "stateMutability": "nonpayable",
      "type": "function"
    }
  ],
  "bytecode": "0x608060405234801561000f575f80fd5b50604051610871380380610871833981810160405281019061003191906101b9565b61004d61004261009360201b60201c565b61009a60201b60201c565b8060015f6101000a81548173ffffffffffffffffffffffffffffffffffffffff021916908373ffffffffffffffffffffffffffffffffffffffff160217905550506101e4565b5f33905090565b5f805f9054906101000a900473ffffffffffffffffffffffffffffffffffffffff169050815f806101000a81548173ffffffffffffffffffffffffffffffffffffffff021916908373ffffffffffffffffffffffffffffffffffffffff1602179055508173ffffffffffffffffffffffffffffffffffffffff168173ffffffffffffffffffffffffffffffffffffffff167f8be0079c531659141344cd1fd0a4f28419497f9722a3daafe3b4186f6b6457e060405160405180910390a35050565b5f80fd5b5f73ffffffffffffffffffffffffffffffffffffffff82169050919050565b5f6101888261015f565b9050919050565b6101988161017e565b81146101a2575f80fd5b50565b5f815190506101b38161018f565b92915050565b5f602082840312156101ce576101cd61015b565b5b5f6101db848285016101a5565b91505092915050565b610680806101f15f395ff3fe608060405234801561000f575f80fd5b506004361061004a575f3560e01c8063715018a61461004e5780638da5cb5b146100585780638e15f47314610076578063f2fde38b14610094575b5f80fd5b6100566100b0565b005b6100606100c3565b60405161006d919061038e565b60405180910390f35b61007e6100ea565b60405161008b91906103bf565b60405180910390f35b6100ae60048036038101906100a99190610406565b610187565b005b6100b8610209565b6100c15f610287565b565b5f805f9054906101000a900473ffffffffffffffffffffffffffffffffffffffff16905090565b5f8060015f9054906101000a900473ffffffffffffffffffffffffffffffffffffffff1673ffffffffffffffffffffffffffffffffffffffff1663feaf968c6040518163ffffffff1660e01b815260040160a060405180830381865afa158015610156573d5f803e3d5ffd5b505050506040513d601f19601f8201168201806040525081019061017a91906104cd565b5050509150508091505090565b61018f610209565b5f73ffffffffffffffffffffffffffffffffffffffff168173ffffffffffffffffffffffffffffffffffffffff16036101fd576040517f08c379a00000000000000000000000000000000000000000000000000000000081526004016101f4906105c4565b60405180910390fd5b61020681610287565b50565b610211610348565b73ffffffffffffffffffffffffffffffffffffffff1661022f6100c3565b73ffffffffffffffffffffffffffffffffffffffff1614610285576040517f08c379a000000000000000000000000000000000000000000000000000000000815260040161027c9061062c565b60405180910390fd5b565b5f805f9054906101000a900473ffffffffffffffffffffffffffffffffffffffff169050815f806101000a81548173ffffffffffffffffffffffffffffffffffffffff021916908373ffffffffffffffffffffffffffffffffffffffff1602179055508173ffffffffffffffffffffffffffffffffffffffff168173ffffffffffffffffffffffffffffffffffffffff167f8be0079c531659141344cd1fd0a4f28419497f9722a3daafe3b4186f6b6457e060405160405180910390a35050565b5f33905090565b5f73ffffffffffffffffffffffffffffffffffffffff82169050919050565b5f6103788261034f565b9050919050565b6103888161036e565b82525050565b5f6020820190506103a15f83018461037f565b92915050565b5f819050919050565b6103b9816103a7565b82525050565b5f6020820190506103d25f8301846103b0565b92915050565b5f80fd5b6103e58161036e565b81146103ef575f80fd5b50565b5f81359050610400816103dc565b92915050565b5f6020828403121561041b5761041a6103d8565b5b5f610428848285016103f2565b91505092915050565b5f69ffffffffffffffffffff82169050919050565b61044f81610431565b8114610459575f80fd5b50565b5f8151905061046a81610446565b92915050565b610479816103a7565b8114610483575f80fd5b50565b5f8151905061049481610470565b92915050565b5f819050919050565b6104ac8161049a565b81146104b6575f80fd5b50565b5f815190506104c7816104a3565b92915050565b5f805f805f60a086880312156104e6576104e56103d8565b5b5f6104f38882890161045c565b955050602061050488828901610486565b9450506040610515888289016104b9565b9350506060610526888289016104b9565b92505060806105378882890161045c565b9150509295509295909350565b5f82825260208201905092915050565b7f4f776e61626c653a206e6577206f776e657220697320746865207a65726f20615f8201527f6464726573730000000000000000000000000000000000000000000000000000602082015250565b5f6105ae602683610544565b91506105b982610554565b604082019050919050565b5f6020820190508181035f8301526105db816105a2565b9050919050565b7f4f776e61626c653a2063616c6c6572206973206e6f7420746865206f776e65725f82015250565b5f610616602083610544565b9150610621826105e2565b602082019050919050565b5f6020820190508181035f8301526106438161060a565b905091905056fea264697066735822122018dda6441d7d86efe6acc227f246bdb16ac69c5511de7c62276b6ab01d86ad4e64736f6c63430008140033",
  "linkReferences": {},
  "deployedLinkReferences": {},
  "immutableReferences": {},
  "inputSourceName": "project/contracts/OraculoETHUSD.sol",
  "buildInfoId": "solc-0_8_20-004ec41043f217f7b17950354ee35d4f412c905f"
}