{
  "_format": "hh3-artifact-1",
  "contractName": "Governanca",
  "sourceName": "contracts/Governanca.sol",
  "abi": [
    {
      "anonymous": false,
      "inputs": [
        {
          "indexed": true,
          "internalType": "address",
          "name": "previousOwner",
          "type": "address"
        },
        {
          "indexed": true,
          "internalType": "address",
          "name": "newOwner",
          "type": "address"
        }
      ],
      "name": "OwnershipTransferred",
      "type": "event"
    },
    {
      "inputs": [
        {
          "internalType": "string",
          "name": "descricao",
          "type": "string"
        }
      ],
      "name": "criarProposta",
      "outputs": [],
      "stateMutability": "nonpayable",
      "type": "function"
    },
    {
      "inputs": [
        {
          "internalType": "uint256",
          "name": "id",
          "type": "uint256"
        }
      ],
      "name": "encerrarProposta",
      "outputs": [],
      "stateMutability": "nonpayable",
      "type": "function"
    },
    {
      "inputs": [],
      "name": "owner",
      "outputs": [
        {
          "internalType": "address",
          "name": "",
          "type": "address"
        }
      ],
      "stateMutability": "view",
      "type": "function"
    },
    {
      "inputs": [
        {
          "internalType": "uint256",
          "name": "",
          "type": "uint256"
        }
      ],
      "name": "propostas",
      "outputs": [
        {
          "internalType": "string",
          "name": "descricao",
          "type": "string"
        },
        {
          "internalType": "uint256",
          "name": "votosSim",
          "type": "uint256"
        },
        {
          "internalType": "uint256",
          "name": "votosNao",
          "type": "uint256"
        },
        {
          "internalType": "bool",
          "name": "encerrada",
          "type": "bool"
        }
      ],
      "stateMutability": "view",
      "type": "function"
    },
    {
      "inputs": [],
      "name": "renounceOwnership",
      "outputs": [],
      "stateMutability": "nonpayable",
      "type": "function"
    },
    {
      "inputs": [
        {
          "internalType": "address",
          "name": "newOwner",
          "type": "address"
        }
      ],
      "name": "transferOwnership",
      "outputs": [],
      "stateMutability": "nonpayable",
      "type": "function"
    },
    {
      "inputs": [
        {
          "internalType": "uint256",
          "name": "id",
          "type": "uint256"
        },
        {
          "internalType": "bool",
          "name": "votoSim",
          "type": "bool"
        }
      ],
      "name": "votar",
      "outputs": [],
      "stateMutability": "nonpayable",
      "type": "function"
    },
    {
      "inputs": [
        {
          "internalType": "address",
          "name": "",
          "type": "address"
        },
        {
          "internalType": "uint256",
          "name": "",
          "type": "uint256"
        }
      ],
      "name": "votou",
      "outputs": [
        {
          "internalType": "bool",
          "name": "",
          "type": "bool"
        }
      ],
      "stateMutability": "view",
      "type": "function"
    }
  ],
  "bytecode": "0x608060405234801561000f575f80fd5b5061002c61002161003160201b60201c565b61003860201b60201c565b6100f9565b5f33905090565b5f805f9054906101000a900473ffffffffffffffffffffffffffffffffffffffff169050815f806101000a81548173ffffffffffffffffffffffffffffffffffffffff021916908373ffffffffffffffffffffffffffffffffffffffff1602179055508173ffffffffffffffffffffffffffffffffffffffff168173ffffffffffffffffffffffffffffffffffffffff167f8be0079c531659141344cd1fd0a4f28419497f9722a3daafe3b4186f6b6457e060405160405180910390a35050565b611100806101065f395ff3fe608060405234801561000f575f80fd5b5060043610610086575f3560e01c80638da5cb5b116100595780638da5cb5b146100ff57806396180dd61461011d578063bb50994214610139578063f2fde38b1461016957610086565b8063121746261461008a57806328962d4e146100a65780636f4777be146100c2578063715018a6146100f5575b5f80fd5b6100a4600480360381019061009f9190610793565b610185565b005b6100c060048036038101906100bb91906107f3565b6101ca565b005b6100dc60048036038101906100d79190610793565b6103b7565b6040516100ec94939291906108d9565b60405180910390f35b6100fd610484565b005b610107610497565b6040516101149190610962565b60405180910390f35b61013760048036038101906101329190610aa7565b6104be565b005b610153600480360381019061014e9190610b18565b61055d565b6040516101609190610b56565b60405180910390f35b610183600480360381019061017e9190610b6f565b610587565b005b61018d610609565b60018082815481106101a2576101a1610b9a565b5b905f5260205f2090600402016003015f6101000a81548160ff02191690831515021790555050565b600182815481106101de576101dd610b9a565b5b905f5260205f2090600402016003015f9054906101000a900460ff161561023a576040517f08c379a000000000000000000000000000000000000000000000000000000000815260040161023190610c11565b60405180910390fd5b60025f3373ffffffffffffffffffffffffffffffffffffffff1673ffffffffffffffffffffffffffffffffffffffff1681526020019081526020015f205f8381526020019081526020015f205f9054906101000a900460ff16156102d3576040517f08c379a00000000000000000000000000000000000000000000000000000000081526004016102ca90610c79565b60405180910390fd5b600160025f3373ffffffffffffffffffffffffffffffffffffffff1673ffffffffffffffffffffffffffffffffffffffff1681526020019081526020015f205f8481526020019081526020015f205f6101000a81548160ff021916908315150217905550801561037a576001828154811061035157610350610b9a565b5b905f5260205f2090600402016001015f81548092919061037090610cc4565b91905055506103b3565b6001828154811061038e5761038d610b9a565b5b905f5260205f2090600402016002015f8154809291906103ad90610cc4565b91905055505b5050565b600181815481106103c6575f80fd5b905f5260205f2090600402015f91509050805f0180546103e590610d38565b80601f016020809104026020016040519081016040528092919081815260200182805461041190610d38565b801561045c5780601f106104335761010080835404028352916020019161045c565b820191905f5260205f20905b81548152906001019060200180831161043f57829003601f168201915b505050505090806001015490806002015490806003015f9054906101000a900460ff16905084565b61048c610609565b6104955f610687565b565b5f805f9054906101000a900473ffffffffffffffffffffffffffffffffffffffff16905090565b6104c6610609565b600160405180608001604052808381526020015f81526020015f81526020015f1515815250908060018154018082558091505060019003905f5260205f2090600402015f909190919091505f820151815f0190816105249190610f05565b5060208201518160010155604082015181600201556060820151816003015f6101000a81548160ff021916908315150217905550505050565b6002602052815f5260405f20602052805f5260405f205f915091509054906101000a900460ff1681565b61058f610609565b5f73ffffffffffffffffffffffffffffffffffffffff168173ffffffffffffffffffffffffffffffffffffffff16036105fd576040517f08c379a00000000000000000000000000000000000000000000000000000000081526004016105f490611044565b60405180910390fd5b61060681610687565b50565b610611610748565b73ffffffffffffffffffffffffffffffffffffffff1661062f610497565b73ffffffffffffffffffffffffffffffffffffffff1614610685576040517f08c379a000000000000000000000000000000000000000000000000000000000815260040161067c906110ac565b60405180910390fd5b565b5f805f9054906101000a900473ffffffffffffffffffffffffffffffffffffffff169050815f806101000a81548173ffffffffffffffffffffffffffffffffffffffff021916908373ffffffffffffffffffffffffffffffffffffffff1602179055508173ffffffffffffffffffffffffffffffffffffffff168173ffffffffffffffffffffffffffffffffffffffff167f8be0079c531659141344cd1fd0a4f28419497f9722a3daafe3b4186f6b6457e060405160405180910390a35050565b5f33905090565b5f604051905090565b5f80fd5b5f80fd5b5f819050919050565b61077281610760565b811461077c575f80fd5b50565b5f8135905061078d81610769565b92915050565b5f602082840312156107a8576107a7610758565b5b5f6107b58482850161077f565b91505092915050565b5f8115159050919050565b6107d2816107be565b81146107dc575f80fd5b50565b5f813590506107ed816107c9565b92915050565b5f806040838503121561080957610808610758565b5b5f6108168582860161077f565b9250506020610827858286016107df565b9150509250929050565b5f81519050919050565b5f82825260208201905092915050565b5f5b8381101561086857808201518184015260208101905061084d565b5f8484015250505050565b5f601f19601f8301169050919050565b5f61088d82610831565b610897818561083b565b93506108a781856020860161084b565b6108b081610873565b840191505092915050565b6108c481610760565b82525050565b6108d3816107be565b82525050565b5f6080820190508181035f8301526108f18187610883565b905061090060208301866108bb565b61090d60408301856108bb565b61091a60608301846108ca565b95945050505050565b5f73ffffffffffffffffffffffffffffffffffffffff82169050919050565b5f61094c82610923565b9050919050565b61095c81610942565b82525050565b5f6020820190506109755f830184610953565b92915050565b5f80fd5b5f80fd5b7f4e487b71000000000000000000000000000000000000000000000000000000005f52604160045260245ffd5b6109b982610873565b810181811067ffffffffffffffff821117156109d8576109d7610983565b5b80604052505050565b5f6109ea61074f565b90506109f682826109b0565b919050565b5f67ffffffffffffffff821115610a1557610a14610983565b5b610a1e82610873565b9050602081019050919050565b828183375f83830152505050565b5f610a4b610a46846109fb565b6109e1565b905082815260208101848484011115610a6757610a6661097f565b5b610a72848285610a2b565b509392505050565b5f82601f830112610a8e57610a8d61097b565b5b8135610a9e848260208601610a39565b91505092915050565b5f60208284031215610abc57610abb610758565b5b5f82013567ffffffffffffffff811115610ad957610ad861075c565b5b610ae584828501610a7a565b91505092915050565b610af781610942565b8114610b01575f80fd5b50565b5f81359050610b1281610aee565b92915050565b5f8060408385031215610b2e57610b2d610758565b5b5f610b3b85828601610b04565b9250506020610b4c8582860161077f565b9150509250929050565b5f602082019050610b695f8301846108ca565b92915050565b5f60208284031215610b8457610b83610758565b5b5f610b9184828501610b04565b91505092915050565b7f4e487b71000000000000000000000000000000000000000000000000000000005f52603260045260245ffd5b7f50726f706f73746120656e6365727261646100000000000000000000000000005f82015250565b5f610bfb60128361083b565b9150610c0682610bc7565b602082019050919050565b5f6020820190508181035f830152610c2881610bef565b9050919050565b7f4a6120766f746f750000000000000000000000000000000000000000000000005f82015250565b5f610c6360088361083b565b9150610c6e82610c2f565b602082019050919050565b5f6020820190508181035f830152610c9081610c57565b9050919050565b7f4e487b71000000000000000000000000000000000000000000000000000000005f52601160045260245ffd5b5f610cce82610760565b91507fffffffffffffffffffffffffffffffffffffffffffffffffffffffffffffffff8203610d0057610cff610c97565b5b600182019050919050565b7f4e487b71000000000000000000000000000000000000000000000000000000005f52602260045260245ffd5b5f6002820490506001821680610d4f57607f821691505b602082108103610d6257610d61610d0b565b5b50919050565b5f819050815f5260205f209050919050565b5f6020601f8301049050919050565b5f82821b905092915050565b5f60088302610dc47fffffffffffffffffffffffffffffffffffffffffffffffffffffffffffffffff82610d89565b610dce8683610d89565b95508019841693508086168417925050509392505050565b5f819050919050565b5f610e09610e04610dff84610760565b610de6565b610760565b9050919050565b5f819050919050565b610e2283610def565b610e36610e2e82610e10565b848454610d95565b825550505050565b5f90565b610e4a610e3e565b610e55818484610e19565b505050565b5b81811015610e7857610e6d5f82610e42565b600181019050610e5b565b5050565b601f821115610ebd57610e8e81610d68565b610e9784610d7a565b81016020851015610ea6578190505b610eba610eb285610d7a565b830182610e5a565b50505b505050565b5f82821c905092915050565b5f610edd5f1984600802610ec2565b1980831691505092915050565b5f610ef58383610ece565b9150826002028217905092915050565b610f0e82610831565b67ffffffffffffffff811115610f2757610f26610983565b5b610f318254610d38565b610f3c828285610e7c565b5f60209050601f831160018114610f6d575f8415610f5b578287015190505b610f658582610eea565b865550610fcc565b601f198416610f7b86610d68565b5f5b82811015610fa257848901518255600182019150602085019450602081019050610f7d565b86831015610fbf5784890151610fbb601f891682610ece565b8355505b6001600288020188555050505b505050505050565b7f4f776e61626c653a206e6577206f776e657220697320746865207a65726f20615f8201527f6464726573730000000000000000000000000000000000000000000000000000602082015250565b5f61102e60268361083b565b915061103982610fd4565b604082019050919050565b5f6020820190508181035f83015261105b81611022565b9050919050565b7f4f776e61626c653a2063616c6c6572206973206e6f7420746865206f776e65725f82015250565b5f61109660208361083b565b91506110a182611062565b602082019050919050565b5f6020820190508181035f8301526110c38161108a565b905091905056fea2646970667358221220b60fe0beb2d0a3466a02df3fdea5675c1c45e671e9a23054f6c92bf2a82bcfb564736f6c63430008140033",
  "linkReferences": {},
  "deployedLinkReferences": {},
  "immutableReferences": {},
  "inputSourceName": "project/contracts/Governanca.sol",
  "buildInfoId": "solc-0_8_20-004ec41043f217f7b17950354ee35d4f412c905f"
}