{
  "_format": "hh3-artifact-1",
  "contractName": "MeuNFT",
  "sourceName": "contracts/MeuNFT.sol",
  "abi": [
    {
      "inputs": [],
      "stateMutability": "nonpayable",
      "type": "constructor"
    },
    {
      "anonymous": false,
      "inputs": [
        {
          "indexed": true,
          "internalType": "address",
          "name": "owner",
          "type": "address"
        },
        {
          "indexed": true,
          "internalType": "address",
          "name": "approved",
          "type": "address"
        },
        {
          "indexed": true,
          "internalType": "uint256",
          "name": "tokenId",
          "type": "uint256"
        }
      ],
      "name": "Approval",
      "type": "event"
    },
    {
      "anonymous": false,
      "inputs": [
        {
          "indexed": true,
          "internalType": "address",
          "name": "owner",
          "type": "address"
        },
        {
          "indexed": true,
          "internalType": "address",
          "name": "operator",
          "type": "address"
        },
        {
          "indexed": false,
          "internalType": "bool",
          "name": "approved",
          "type": "bool"
        }
      ],
      "name": "ApprovalForAll",
      "type": "event"
    },
    {
      "anonymous": false,
      "inputs": [
        {
          "indexed": true,
          "internalType": "address",
          "name": "previousOwner",
          "type": "address"
        },
        {
          "indexed": true,
          "internalType": "address",
          "name": "newOwner",
          "type": "address"
        }
      ],
      "name": "OwnershipTransferred",
      "type": "event"
    },
    {
      "anonymous": false,
      "inputs": [
        {
          "indexed": true,
          "internalType": "address",
          "name": "from",
          "type": "address"
        },
        {
          "indexed": true,
          "internalType": "address",
          "name": "to",
          "type": "address"
        },
        {
          "indexed": true,
          "internalType": "uint256",
          "name": "tokenId",
          "type": "uint256"
        }
      ],
      "name": "Transfer",
      "type": "event"
    },
    {
      "inputs": [
        {
          "internalType": "address",
          "name": "to",
          "type": "address"
        },
        {
          "internalType": "uint256",
          "name": "tokenId",
          "type": "uint256"
        }
      ],
      "name": "approve",
      "outputs": [],
      "stateMutability": "nonpayable",
      "type": "function"
    },
    {
      "inputs": [
        {
          "internalType": "address",
          "name": "owner",
          "type": "address"
        }
      ],
      "name": "balanceOf",
      "outputs": [
        {
          "internalType": "uint256",
          "name": "",
          "type": "uint256"
        }
      ],
      "stateMutability": "view",
      "type": "function"
    },
    {
      "inputs": [
        {
          "internalType": "uint256",
          "name": "tokenId",
          "type": "uint256"
        }
      ],
      "name": "getApproved",
      "outputs": [
        {
          "internalType": "address",
          "name": "",
          "type": "address"
        }
      ],
      "stateMutability": "view",
      "type": "function"
    },
    {
      "inputs": [
        {
          "internalType": "address",
          "name": "owner",
          "type": "address"
        },
        {
          "internalType": "address",
          "name": "operator",
          "type": "address"
        }
      ],
      "name": "isApprovedForAll",
      "outputs": [
        {
          "internalType": "bool",
          "name": "",
          "type": "bool"
        }
      ],
      "stateMutability": "view",
      "type": "function"
    },
    {
      "inputs": [
        {
          "internalType": "address",
          "name": "to",
          "type": "address"
        }
      ],
      "name": "mint",
      "outputs": [],
      "stateMutability": "nonpayable",
      "type": "function"
    },
    {
      "inputs": [],
      "name": "name",
      "outputs": [
        {
          "internalType": "string",
          "name": "",
          "type": "string"
        }
      ],
      "stateMutability": "view",
      "type": "function"
    },
    {
      "inputs": [],
      "name": "nextTokenId",
      "outputs": [
        {
          "internalType": "uint256",
          "name": "",
          "type": "uint256"
        }
      ],
      "stateMutability": "view",
      "type": "function"
    },
    {
      "inputs": [],
      "name": "owner",
      "outputs": [
        {
          "internalType": "address",
          "name": "",
          "type": "address"
        }
      ],
      "stateMutability": "view",
      "type": "function"
    },
    {
      "inputs": [
        {
          "internalType": "uint256",
          "name": "tokenId",
          "type": "uint256"
        }
      ],
      "name": "ownerOf",
      "outputs": [
        {
          "internalType": "address",
          "name": "",
          "type": "address"
        }
      ],
      "stateMutability": "view",
      "type": "function"
    },
    {
      "inputs": [],
      "name": "renounceOwnership",
      "outputs": [],
      "stateMutability": "nonpayable",
      "type": "function"
    },
    {
      "inputs": [
        {
          "internalType": "address",
          "name": "from",
          "type": "address"
        },
        {
          "internalType": "address",
          "name": "to",
          "type": "address"
        },
        {
          "internalType": "uint256",
          "name": "tokenId",
          "type": "uint256"
        }
      ],
      "name": "safeTransferFrom",
      "outputs": [],
      "stateMutability": "nonpayable",
      "type": "function"
    },
    {
      "inputs": [
        {
          "internalType": "address",
          "name": "from",
          "type": "address"
        },
        {
          "internalType": "address",
          "name": "to",
          "type": "address"
        },
        {
          "internalType": "uint256",
          "name": "tokenId",
          "type": "uint256"
        },
        {
          "internalType": "bytes",
          "name": "data",
          "type": "bytes"
        }
      ],
      "name": "safeTransferFrom",
      "outputs": [],
      "stateMutability": "nonpayable",
      "type": "function"
    },
    {
      "inputs": [
        {
          "internalType": "address",
          "name": "operator",
          "type": "address"
        },
        {
          "internalType": "bool",
          "name": "approved",
          "type": "bool"
        }
      ],
      "name": "setApprovalForAll",
      "outputs": [],
      "stateMutability": "nonpayable",
      "type": "function"
    },
    {
      "inputs": [
        {
          "internalType": "bytes4",
          "name": "interfaceId",
          "type": "bytes4"
        }
      ],
      "name": "supportsInterface",
      "outputs": [
        {
          "internalType": "bool",
          "name": "",
          "type": "bool"
        }
      ],
      "stateMutability": "view",
      "type": "function"
    },
    {
      "inputs": [],
      "name": "symbol",
      "outputs": [
        {
          "internalType": "string",
          "name": "",
          "type": "string"
        }
      ],
      "stateMutability": "view",
      "type": "function"
    },
    {
      "inputs": [
        {
          "internalType": "uint256",
          "name": "tokenId",
          "type": "uint256"
        }
      ],
      "name": "tokenURI",
      "outputs": [
        {
          "internalType": "string",
          "name": "",
          "type": "string"
        }
      ],
      "stateMutability": "view",
      "type": "function"
    },
    {
      "inputs": [
        {
          "internalType": "address",
          "name": "from",
          "type": "address"
        },
        {
          "internalType": "address",
          "name": "to",
          "type": "address"
        },
        {
          "internalType": "uint256",
          "name": "tokenId",
          "type": "uint256"
        }
      ],
      "name": "transferFrom",
      "outputs": [],
      "stateMutability": "nonpayable",
      "type": "function"
    },
    {
      "inputs": [
        {
          "internalType": "address",
          "name": "newOwner",
          "type": "address"
        }
      ],
      "name": "transferOwnership",
      "outputs": [],
      "stateMutability": "nonpayable",
      "type": "function"
    }
  ],
  "bytecode": "0x608060405234801562000010575f80fd5b506040518060400160405280600681526020017f4d65754e465400000000000000000000000000000000000000000000000000008152506040518060400160405280600481526020017f4d4e465400000000000000000000000000000000000000000000000000000000815250815f90816200008d9190620003f6565b5080600190816200009f9190620003f6565b505050620000c2620000b6620000c860201b60201c565b620000cf60201b60201c565b620004da565b5f33905090565b5f60065f9054906101000a900473ffffffffffffffffffffffffffffffffffffffff1690508160065f6101000a81548173ffffffffffffffffffffffffffffffffffffffff021916908373ffffffffffffffffffffffffffffffffffffffff1602179055508173ffffffffffffffffffffffffffffffffffffffff168173ffffffffffffffffffffffffffffffffffffffff167f8be0079c531659141344cd1fd0a4f28419497f9722a3daafe3b4186f6b6457e060405160405180910390a35050565b5f81519050919050565b7f4e487b71000000000000000000000000000000000000000000000000000000005f52604160045260245ffd5b7f4e487b71000000000000000000000000000000000000000000000000000000005f52602260045260245ffd5b5f60028204905060018216806200020e57607f821691505b602082108103620002245762000223620001c9565b5b50919050565b5f819050815f5260205f209050919050565b5f6020601f8301049050919050565b5f82821b905092915050565b5f60088302620002887fffffffffffffffffffffffffffffffffffffffffffffffffffffffffffffffff826200024b565b6200029486836200024b565b95508019841693508086168417925050509392505050565b5f819050919050565b5f819050919050565b5f620002de620002d8620002d284620002ac565b620002b5565b620002ac565b9050919050565b5f819050919050565b620002f983620002be565b620003116200030882620002e5565b84845462000257565b825550505050565b5f90565b6200032762000319565b62000334818484620002ee565b505050565b5b818110156200035b576200034f5f826200031d565b6001810190506200033a565b5050565b601f821115620003aa5762000374816200022a565b6200037f846200023c565b810160208510156200038f578190505b620003a76200039e856200023c565b83018262000339565b50505b505050565b5f82821c905092915050565b5f620003cc5f1984600802620003af565b1980831691505092915050565b5f620003e68383620003bb565b9150826002028217905092915050565b620004018262000192565b67ffffffffffffffff8111156200041d576200041c6200019c565b5b620004298254620001f6565b620004368282856200035f565b5f60209050601f8311600181146200046c575f841562000457578287015190505b620004638582620003d9565b865550620004d2565b601f1984166200047c866200022a565b5f5b82811015620004a5578489015182556001820191506020850194506020810190506200047e565b86831015620004c55784890151620004c1601f891682620003bb565b8355505b6001600288020188555050505b505050505050565b61282780620004e85f395ff3fe608060405234801561000f575f80fd5b5060043610610114575f3560e01c8063715018a6116100a0578063a22cb4651161006f578063a22cb465146102ca578063b88d4fde146102e6578063c87b56dd14610302578063e985e9c514610332578063f2fde38b1461036257610114565b8063715018a61461026657806375794a3c146102705780638da5cb5b1461028e57806395d89b41146102ac57610114565b806323b872dd116100e757806323b872dd146101b257806342842e0e146101ce5780636352211e146101ea5780636a6278421461021a57806370a082311461023657610114565b806301ffc9a71461011857806306fdde0314610148578063081812fc14610166578063095ea7b314610196575b5f80fd5b610132600480360381019061012d9190611a28565b61037e565b60405161013f9190611a6d565b60405180910390f35b61015061045f565b60405161015d9190611b10565b60405180910390f35b610180600480360381019061017b9190611b63565b6104ee565b60405161018d9190611bcd565b60405180910390f35b6101b060048036038101906101ab9190611c10565b610530565b005b6101cc60048036038101906101c79190611c4e565b610646565b005b6101e860048036038101906101e39190611c4e565b6106a6565b005b61020460048036038101906101ff9190611b63565b6106c5565b6040516102119190611bcd565b60405180910390f35b610234600480360381019061022f9190611c9e565b610749565b005b610250600480360381019061024b9190611c9e565b610777565b60405161025d9190611cd8565b60405180910390f35b61026e61082b565b005b61027861083e565b6040516102859190611cd8565b60405180910390f35b610296610844565b6040516102a39190611bcd565b60405180910390f35b6102b461086c565b6040516102c19190611b10565b60405180910390f35b6102e460048036038101906102df9190611d1b565b6108fc565b005b61030060048036038101906102fb9190611e85565b610912565b005b61031c60048036038101906103179190611b63565b610974565b6040516103299190611b10565b60405180910390f35b61034c60048036038101906103479190611f05565b6109d9565b6040516103599190611a6d565b60405180910390f35b61037c60048036038101906103779190611c9e565b610a67565b005b5f7f80ac58cd000000000000000000000000000000000000000000000000000000007bffffffffffffffffffffffffffffffffffffffffffffffffffffffff1916827bffffffffffffffffffffffffffffffffffffffffffffffffffffffff1916148061044857507f5b5e139f000000000000000000000000000000000000000000000000000000007bffffffffffffffffffffffffffffffffffffffffffffffffffffffff1916827bffffffffffffffffffffffffffffffffffffffffffffffffffffffff1916145b80610458575061045782610ae9565b5b9050919050565b60605f805461046d90611f70565b80601f016020809104026020016040519081016040528092919081815260200182805461049990611f70565b80156104e45780601f106104bb576101008083540402835291602001916104e4565b820191905f5260205f20905b8154815290600101906020018083116104c757829003601f168201915b5050505050905090565b5f6104f882610b52565b60045f8381526020019081526020015f205f9054906101000a900473ffffffffffffffffffffffffffffffffffffffff169050919050565b5f61053a826106c5565b90508073ffffffffffffffffffffffffffffffffffffffff168373ffffffffffffffffffffffffffffffffffffffff16036105aa576040517f08c379a00000000000000000000000000000000000000000000000000000000081526004016105a190612010565b60405180910390fd5b8073ffffffffffffffffffffffffffffffffffffffff166105c9610b9d565b73ffffffffffffffffffffffffffffffffffffffff1614806105f857506105f7816105f2610b9d565b6109d9565b5b610637576040517f08c379a000000000000000000000000000000000000000000000000000000000815260040161062e9061209e565b60405180910390fd5b6106418383610ba4565b505050565b610657610651610b9d565b82610c5a565b610696576040517f08c379a000000000000000000000000000000000000000000000000000000000815260040161068d9061212c565b60405180910390fd5b6106a1838383610cee565b505050565b6106c083838360405180602001604052805f815250610912565b505050565b5f806106d083610fda565b90505f73ffffffffffffffffffffffffffffffffffffffff168173ffffffffffffffffffffffffffffffffffffffff1603610740576040517f08c379a000000000000000000000000000000000000000000000000000000000815260040161073790612194565b60405180910390fd5b80915050919050565b610751611013565b61075d81600754611091565b60075f81548092919061076f906121df565b919050555050565b5f8073ffffffffffffffffffffffffffffffffffffffff168273ffffffffffffffffffffffffffffffffffffffff16036107e6576040517f08c379a00000000000000000000000000000000000000000000000000000000081526004016107dd90612296565b60405180910390fd5b60035f8373ffffffffffffffffffffffffffffffffffffffff1673ffffffffffffffffffffffffffffffffffffffff1681526020019081526020015f20549050919050565b610833611013565b61083c5f6110ae565b565b60075481565b5f60065f9054906101000a900473ffffffffffffffffffffffffffffffffffffffff16905090565b60606001805461087b90611f70565b80601f01602080910402602001604051908101604052809291908181526020018280546108a790611f70565b80156108f25780601f106108c9576101008083540402835291602001916108f2565b820191905f5260205f20905b8154815290600101906020018083116108d557829003601f168201915b5050505050905090565b61090e610907610b9d565b8383611171565b5050565b61092361091d610b9d565b83610c5a565b610962576040517f08c379a00000000000000000000000000000000000000000000000000000000081526004016109599061212c565b60405180910390fd5b61096e848484846112d8565b50505050565b606061097f82610b52565b5f610988611334565b90505f8151116109a65760405180602001604052805f8152506109d1565b806109b08461134a565b6040516020016109c19291906122ee565b6040516020818303038152906040525b915050919050565b5f60055f8473ffffffffffffffffffffffffffffffffffffffff1673ffffffffffffffffffffffffffffffffffffffff1681526020019081526020015f205f8373ffffffffffffffffffffffffffffffffffffffff1673ffffffffffffffffffffffffffffffffffffffff1681526020019081526020015f205f9054906101000a900460ff16905092915050565b610a6f611013565b5f73ffffffffffffffffffffffffffffffffffffffff168173ffffffffffffffffffffffffffffffffffffffff1603610add576040517f08c379a0000000000000000000000000000000000000000000000000000000008152600401610ad490612381565b60405180910390fd5b610ae6816110ae565b50565b5f7f01ffc9a7000000000000000000000000000000000000000000000000000000007bffffffffffffffffffffffffffffffffffffffffffffffffffffffff1916827bffffffffffffffffffffffffffffffffffffffffffffffffffffffff1916149050919050565b610b5b81611414565b610b9a576040517f08c379a0000000000000000000000000000000000000000000000000000000008152600401610b9190612194565b60405180910390fd5b50565b5f33905090565b8160045f8381526020019081526020015f205f6101000a81548173ffffffffffffffffffffffffffffffffffffffff021916908373ffffffffffffffffffffffffffffffffffffffff160217905550808273ffffffffffffffffffffffffffffffffffffffff16610c14836106c5565b73ffffffffffffffffffffffffffffffffffffffff167f8c5be1e5ebec7d5bd14f71427d1e84f3dd0314c0f7b2291e5b200ac8c7c3b92560405160405180910390a45050565b5f80610c65836106c5565b90508073ffffffffffffffffffffffffffffffffffffffff168473ffffffffffffffffffffffffffffffffffffffff161480610ca75750610ca681856109d9565b5b80610ce557508373ffffffffffffffffffffffffffffffffffffffff16610ccd846104ee565b73ffffffffffffffffffffffffffffffffffffffff16145b91505092915050565b8273ffffffffffffffffffffffffffffffffffffffff16610d0e826106c5565b73ffffffffffffffffffffffffffffffffffffffff1614610d64576040517f08c379a0000000000000000000000000000000000000000000000000000000008152600401610d5b9061240f565b60405180910390fd5b5f73ffffffffffffffffffffffffffffffffffffffff168273ffffffffffffffffffffffffffffffffffffffff1603610dd2576040517f08c379a0000000000000000000000000000000000000000000000000000000008152600401610dc99061249d565b60405180910390fd5b610ddf8383836001611454565b8273ffffffffffffffffffffffffffffffffffffffff16610dff826106c5565b73ffffffffffffffffffffffffffffffffffffffff1614610e55576040517f08c379a0000000000000000000000000000000000000000000000000000000008152600401610e4c9061240f565b60405180910390fd5b60045f8281526020019081526020015f205f6101000a81549073ffffffffffffffffffffffffffffffffffffffff0219169055600160035f8573ffffffffffffffffffffffffffffffffffffffff1673ffffffffffffffffffffffffffffffffffffffff1681526020019081526020015f205f8282540392505081905550600160035f8473ffffffffffffffffffffffffffffffffffffffff1673ffffffffffffffffffffffffffffffffffffffff1681526020019081526020015f205f82825401925050819055508160025f8381526020019081526020015f205f6101000a81548173ffffffffffffffffffffffffffffffffffffffff021916908373ffffffffffffffffffffffffffffffffffffffff160217905550808273ffffffffffffffffffffffffffffffffffffffff168473ffffffffffffffffffffffffffffffffffffffff167fddf252ad1be2c89b69c2b068fc378daa952ba7f163c4a11628f55a4df523b3ef60405160405180910390a4610fd5838383600161145a565b505050565b5f60025f8381526020019081526020015f205f9054906101000a900473ffffffffffffffffffffffffffffffffffffffff169050919050565b61101b610b9d565b73ffffffffffffffffffffffffffffffffffffffff16611039610844565b73ffffffffffffffffffffffffffffffffffffffff161461108f576040517f08c379a000000000000000000000000000000000000000000000000000000000815260040161108690612505565b60405180910390fd5b565b6110aa828260405180602001604052805f815250611460565b5050565b5f60065f9054906101000a900473ffffffffffffffffffffffffffffffffffffffff1690508160065f6101000a81548173ffffffffffffffffffffffffffffffffffffffff021916908373ffffffffffffffffffffffffffffffffffffffff1602179055508173ffffffffffffffffffffffffffffffffffffffff168173ffffffffffffffffffffffffffffffffffffffff167f8be0079c531659141344cd1fd0a4f28419497f9722a3daafe3b4186f6b6457e060405160405180910390a35050565b8173ffffffffffffffffffffffffffffffffffffffff168373ffffffffffffffffffffffffffffffffffffffff16036111df576040517f08c379a00000000000000000000000000000000000000000000000000000000081526004016111d69061256d565b60405180910390fd5b8060055f8573ffffffffffffffffffffffffffffffffffffffff1673ffffffffffffffffffffffffffffffffffffffff1681526020019081526020015f205f8473ffffffffffffffffffffffffffffffffffffffff1673ffffffffffffffffffffffffffffffffffffffff1681526020019081526020015f205f6101000a81548160ff0219169083151502179055508173ffffffffffffffffffffffffffffffffffffffff168373ffffffffffffffffffffffffffffffffffffffff167f17307eab39ab6107e8899845ad3d59bd9653f200f220920489ca2b5937696c31836040516112cb9190611a6d565b60405180910390a3505050565b6112e3848484610cee565b6112ef848484846114ba565b61132e576040517f08c379a0000000000000000000000000000000000000000000000000000000008152600401611325906125fb565b60405180910390fd5b50505050565b606060405180602001604052805f815250905090565b60605f60016113588461163c565b0190505f8167ffffffffffffffff81111561137657611375611d61565b5b6040519080825280601f01601f1916602001820160405280156113a85781602001600182028036833780820191505090505b5090505f82602001820190505b600115611409578080600190039150507f3031323334353637383961626364656600000000000000000000000000000000600a86061a8153600a85816113fe576113fd612619565b5b0494505f85036113b5575b819350505050919050565b5f8073ffffffffffffffffffffffffffffffffffffffff1661143583610fda565b73ffffffffffffffffffffffffffffffffffffffff1614159050919050565b50505050565b50505050565b61146a838361178d565b6114765f8484846114ba565b6114b5576040517f08c379a00000000000000000000000000000000000000000000000000000000081526004016114ac906125fb565b60405180910390fd5b505050565b5f6114da8473ffffffffffffffffffffffffffffffffffffffff166119a0565b1561162f578373ffffffffffffffffffffffffffffffffffffffff1663150b7a02611503610b9d565b8786866040518563ffffffff1660e01b81526004016115259493929190612698565b6020604051808303815f875af192505050801561156057506040513d601f19601f8201168201806040525081019061155d91906126f6565b60015b6115df573d805f811461158e576040519150601f19603f3d011682016040523d82523d5f602084013e611593565b606091505b505f8151036115d7576040517f08c379a00000000000000000000000000000000000000000000000000000000081526004016115ce906125fb565b60405180910390fd5b805181602001fd5b63150b7a0260e01b7bffffffffffffffffffffffffffffffffffffffffffffffffffffffff1916817bffffffffffffffffffffffffffffffffffffffffffffffffffffffff191614915050611634565b600190505b949350505050565b5f805f90507a184f03e93ff9f4daa797ed6e38ed64bf6a1f0100000000000000008310611698577a184f03e93ff9f4daa797ed6e38ed64bf6a1f010000000000000000838161168e5761168d612619565b5b0492506040810190505b6d04ee2d6d415b85acef810000000083106116d5576d04ee2d6d415b85acef810000000083816116cb576116ca612619565b5b0492506020810190505b662386f26fc10000831061170457662386f26fc1000083816116fa576116f9612619565b5b0492506010810190505b6305f5e100831061172d576305f5e100838161172357611722612619565b5b0492506008810190505b612710831061175257612710838161174857611747612619565b5b0492506004810190505b60648310611775576064838161176b5761176a612619565b5b0492506002810190505b600a8310611784576001810190505b80915050919050565b5f73ffffffffffffffffffffffffffffffffffffffff168273ffffffffffffffffffffffffffffffffffffffff16036117fb576040517f08c379a00000000000000000000000000000000000000000000000000000000081526004016117f29061276b565b60405180910390fd5b61180481611414565b15611844576040517f08c379a000000000000000000000000000000000000000000000000000000000815260040161183b906127d3565b60405180910390fd5b6118515f83836001611454565b61185a81611414565b1561189a576040517f08c379a0000000000000000000000000000000000000000000000000000000008152600401611891906127d3565b60405180910390fd5b600160035f8473ffffffffffffffffffffffffffffffffffffffff1673ffffffffffffffffffffffffffffffffffffffff1681526020019081526020015f205f82825401925050819055508160025f8381526020019081526020015f205f6101000a81548173ffffffffffffffffffffffffffffffffffffffff021916908373ffffffffffffffffffffffffffffffffffffffff160217905550808273ffffffffffffffffffffffffffffffffffffffff165f73ffffffffffffffffffffffffffffffffffffffff167fddf252ad1be2c89b69c2b068fc378daa952ba7f163c4a11628f55a4df523b3ef60405160405180910390a461199c5f8383600161145a565b5050565b5f808273ffffffffffffffffffffffffffffffffffffffff163b119050919050565b5f604051905090565b5f80fd5b5f80fd5b5f7fffffffff0000000000000000000000000000000000000000000000000000000082169050919050565b611a07816119d3565b8114611a11575f80fd5b50565b5f81359050611a22816119fe565b92915050565b5f60208284031215611a3d57611a3c6119cb565b5b5f611a4a84828501611a14565b91505092915050565b5f8115159050919050565b611a6781611a53565b82525050565b5f602082019050611a805f830184611a5e565b92915050565b5f81519050919050565b5f82825260208201905092915050565b5f5b83811015611abd578082015181840152602081019050611aa2565b5f8484015250505050565b5f601f19601f8301169050919050565b5f611ae282611a86565b611aec8185611a90565b9350611afc818560208601611aa0565b611b0581611ac8565b840191505092915050565b5f6020820190508181035f830152611b288184611ad8565b905092915050565b5f819050919050565b611b4281611b30565b8114611b4c575f80fd5b50565b5f81359050611b5d81611b39565b92915050565b5f60208284031215611b7857611b776119cb565b5b5f611b8584828501611b4f565b91505092915050565b5f73ffffffffffffffffffffffffffffffffffffffff82169050919050565b5f611bb782611b8e565b9050919050565b611bc781611bad565b82525050565b5f602082019050611be05f830184611bbe565b92915050565b611bef81611bad565b8114611bf9575f80fd5b50565b5f81359050611c0a81611be6565b92915050565b5f8060408385031215611c2657611c256119cb565b5b5f611c3385828601611bfc565b9250506020611c4485828601611b4f565b9150509250929050565b5f805f60608486031215611c6557611c646119cb565b5b5f611c7286828701611bfc565b9350506020611c8386828701611bfc565b9250506040611c9486828701611b4f565b9150509250925092565b5f60208284031215611cb357611cb26119cb565b5b5f611cc084828501611bfc565b91505092915050565b611cd281611b30565b82525050565b5f602082019050611ceb5f830184611cc9565b92915050565b611cfa81611a53565b8114611d04575f80fd5b50565b5f81359050611d1581611cf1565b92915050565b5f8060408385031215611d3157611d306119cb565b5b5f611d3e85828601611bfc565b9250506020611d4f85828601611d07565b9150509250929050565b5f80fd5b5f80fd5b7f4e487b71000000000000000000000000000000000000000000000000000000005f52604160045260245ffd5b611d9782611ac8565b810181811067ffffffffffffffff82111715611db657611db5611d61565b5b80604052505050565b5f611dc86119c2565b9050611dd48282611d8e565b919050565b5f67ffffffffffffffff821115611df357611df2611d61565b5b611dfc82611ac8565b9050602081019050919050565b828183375f83830152505050565b5f611e29611e2484611dd9565b611dbf565b905082815260208101848484011115611e4557611e44611d5d565b5b611e50848285611e09565b509392505050565b5f82601f830112611e6c57611e6b611d59565b5b8135611e7c848260208601611e17565b91505092915050565b5f805f8060808587031215611e9d57611e9c6119cb565b5b5f611eaa87828801611bfc565b9450506020611ebb87828801611bfc565b9350506040611ecc87828801611b4f565b925050606085013567ffffffffffffffff811115611eed57611eec6119cf565b5b611ef987828801611e58565b91505092959194509250565b5f8060408385031215611f1b57611f1a6119cb565b5b5f611f2885828601611bfc565b9250506020611f3985828601611bfc565b9150509250929050565b7f4e487b71000000000000000000000000000000000000000000000000000000005f52602260045260245ffd5b5f6002820490506001821680611f8757607f821691505b602082108103611f9a57611f99611f43565b5b50919050565b7f4552433732313a20617070726f76616c20746f2063757272656e74206f776e655f8201527f7200000000000000000000000000000000000000000000000000000000000000602082015250565b5f611ffa602183611a90565b915061200582611fa0565b604082019050919050565b5f6020820190508181035f83015261202781611fee565b9050919050565b7f4552433732313a20617070726f76652063616c6c6572206973206e6f7420746f5f8201527f6b656e206f776e6572206f7220617070726f76656420666f7220616c6c000000602082015250565b5f612088603d83611a90565b91506120938261202e565b604082019050919050565b5f6020820190508181035f8301526120b58161207c565b9050919050565b7f4552433732313a2063616c6c6572206973206e6f7420746f6b656e206f776e655f8201527f72206f7220617070726f76656400000000000000000000000000000000000000602082015250565b5f612116602d83611a90565b9150612121826120bc565b604082019050919050565b5f6020820190508181035f8301526121438161210a565b9050919050565b7f4552433732313a20696e76616c696420746f6b656e20494400000000000000005f82015250565b5f61217e601883611a90565b91506121898261214a565b602082019050919050565b5f6020820190508181035f8301526121ab81612172565b9050919050565b7f4e487b71000000000000000000000000000000000000000000000000000000005f52601160045260245ffd5b5f6121e982611b30565b91507fffffffffffffffffffffffffffffffffffffffffffffffffffffffffffffffff820361221b5761221a6121b2565b5b600182019050919050565b7f4552433732313a2061646472657373207a65726f206973206e6f7420612076615f8201527f6c6964206f776e65720000000000000000000000000000000000000000000000602082015250565b5f612280602983611a90565b915061228b82612226565b604082019050919050565b5f6020820190508181035f8301526122ad81612274565b9050919050565b5f81905092915050565b5f6122c882611a86565b6122d281856122b4565b93506122e2818560208601611aa0565b80840191505092915050565b5f6122f982856122be565b915061230582846122be565b91508190509392505050565b7f4f776e61626c653a206e6577206f776e657220697320746865207a65726f20615f8201527f6464726573730000000000000000000000000000000000000000000000000000602082015250565b5f61236b602683611a90565b915061237682612311565b604082019050919050565b5f6020820190508181035f8301526123988161235f565b9050919050565b7f4552433732313a207472616e736665722066726f6d20696e636f7272656374205f8201527f6f776e6572000000000000000000000000000000000000000000000000000000602082015250565b5f6123f9602583611a90565b91506124048261239f565b604082019050919050565b5f6020820190508181035f830152612426816123ed565b9050919050565b7f4552433732313a207472616e7366657220746f20746865207a65726f206164645f8201527f7265737300000000000000000000000000000000000000000000000000000000602082015250565b5f612487602483611a90565b91506124928261242d565b604082019050919050565b5f6020820190508181035f8301526124b48161247b565b9050919050565b7f4f776e61626c653a2063616c6c6572206973206e6f7420746865206f776e65725f82015250565b5f6124ef602083611a90565b91506124fa826124bb565b602082019050919050565b5f6020820190508181035f83015261251c816124e3565b9050919050565b7f4552433732313a20617070726f766520746f2063616c6c6572000000000000005f82015250565b5f612557601983611a90565b915061256282612523565b602082019050919050565b5f6020820190508181035f8301526125848161254b565b9050919050565b7f4552433732313a207472616e7366657220746f206e6f6e2045524337323152655f8201527f63656976657220696d706c656d656e7465720000000000000000000000000000602082015250565b5f6125e5603283611a90565b91506125f08261258b565b604082019050919050565b5f6020820190508181035f830152612612816125d9565b9050919050565b7f4e487b71000000000000000000000000000000000000000000000000000000005f52601260045260245ffd5b5f81519050919050565b5f82825260208201905092915050565b5f61266a82612646565b6126748185612650565b9350612684818560208601611aa0565b61268d81611ac8565b840191505092915050565b5f6080820190506126ab5f830187611bbe565b6126b86020830186611bbe565b6126c56040830185611cc9565b81810360608301526126d78184612660565b905095945050505050565b5f815190506126f0816119fe565b92915050565b5f6020828403121561270b5761270a6119cb565b5b5f612718848285016126e2565b91505092915050565b7f4552433732313a206d696e7420746f20746865207a65726f20616464726573735f82015250565b5f612755602083611a90565b915061276082612721565b602082019050919050565b5f6020820190508181035f83015261278281612749565b9050919050565b7f4552433732313a20746f6b656e20616c7265616479206d696e746564000000005f82015250565b5f6127bd601c83611a90565b91506127c882612789565b602082019050919050565b5f6020820190508181035f8301526127ea816127b1565b905091905056fea264697066735822122099f217ad2dac5b8ce1843e8a46b9b9d1e41304055ce67604933bf57923cd600a64736f6c63430008140033",
  "linkReferences": {},
  "deployedLinkReferences": {},
  "immutableReferences": {},
  "inputSourceName": "project/contracts/MeuNFT.sol",
  "buildInfoId": "solc-0_8_20-004ec41043f217f7b17950354ee35d4f412c905f"
}